{
  "_format": "hh-sol-artifact-1",
  "contractName": "SimpleToken",
  "sourceName": "contracts/SimpleToken.sol",
  "abi": [
    {
      "inputs": [],
      "stateMutability": "nonpayable",
      "type": "constructor"
    },
    {
      "anonymous": false,
      "inputs": [
        {
          "indexed": true,
          "internalType": "address",
          "name": "owner",
          "type": "address"
        },
        {
          "indexed": true,
          "internalType": "address",
          "name": "spender",
          "type": "address"
        },
        {
          "indexed": false,
          "internalType": "uint256",
          "name": "value",
          "type": "uint256"
        }
      ],
      "name": "Approval",
      "type": "event"
    },
    {
      "anonymous": false,
      "inputs": [
        {
          "indexed": true,
          "internalType": "address",
          "name": "from",
          "type": "address"
        },
        {
          "indexed": true,
          "internalType": "address",
          "name": "to",
          "type": "address"
        },
        {
          "indexed": false,
          "internalType": "uint256",
          "name": "value",
          "type": "uint256"
        }
      ],
      "name": "Transfer",
      "type": "event"
    },
    {
      "inputs": [
        {
          "internalType": "address",
          "name": "owner",
          "type": "address"
        },
        {
          "internalType": "address",
          "name": "spender",
          "type": "address"
        }
      ],
      "name": "allowance",
      "outputs": [
        {
          "internalType": "uint256",
          "name": "",
          "type": "uint256"
        }
      ],
      "stateMutability": "view",
      "type": "function"
    },
    {
      "inputs": [
        {
          "internalType": "address",
          "name": "spender",
          "type": "address"
        },
        {
          "internalType": "uint256",
          "name": "amount",
          "type": "uint256"
        }
      ],
      "name": "approve",
      "outputs": [
        {
          "internalType": "bool",
          "name": "",
          "type": "bool"
        }
      ],
      "stateMutability": "nonpayable",
      "type": "function"
    },
    {
      "inputs": [
        {
          "internalType": "address",
          "name": "account",
          "type": "address"
        }
      ],
      "name": "balanceOf",
      "outputs": [
        {
          "internalType": "uint256",
          "name": "",
          "type": "uint256"
        }
      ],
      "stateMutability": "view",
      "type": "function"
    },
    {
      "inputs": [
        {
          "internalType": "address",
          "name": "receiver",
          "type": "address"
        }
      ],
      "name": "buyToken",
      "outputs": [],
      "stateMutability": "payable",
      "type": "function"
    },
    {
      "inputs": [],
      "name": "decimals",
      "outputs": [
        {
          "internalType": "uint8",
          "name": "",
          "type": "uint8"
        }
      ],
      "stateMutability": "view",
      "type": "function"
    },
    {
      "inputs": [
        {
          "internalType": "address",
          "name": "spender",
          "type": "address"
        },
        {
          "internalType": "uint256",
          "name": "subtractedValue",
          "type": "uint256"
        }
      ],
      "name": "decreaseAllowance",
      "outputs": [
        {
          "internalType": "bool",
          "name": "",
          "type": "bool"
        }
      ],
      "stateMutability": "nonpayable",
      "type": "function"
    },
    {
      "inputs": [
        {
          "internalType": "address",
          "name": "spender",
          "type": "address"
        },
        {
          "internalType": "uint256",
          "name": "addedValue",
          "type": "uint256"
        }
      ],
      "name": "increaseAllowance",
      "outputs": [
        {
          "internalType": "bool",
          "name": "",
          "type": "bool"
        }
      ],
      "stateMutability": "nonpayable",
      "type": "function"
    },
    {
      "inputs": [],
      "name": "name",
      "outputs": [
        {
          "internalType": "string",
          "name": "",
          "type": "string"
        }
      ],
      "stateMutability": "view",
      "type": "function"
    },
    {
      "inputs": [],
      "name": "symbol",
      "outputs": [
        {
          "internalType": "string",
          "name": "",
          "type": "string"
        }
      ],
      "stateMutability": "view",
      "type": "function"
    },
    {
      "inputs": [],
      "name": "totalSupply",
      "outputs": [
        {
          "internalType": "uint256",
          "name": "",
          "type": "uint256"
        }
      ],
      "stateMutability": "view",
      "type": "function"
    },
    {
      "inputs": [
        {
          "internalType": "address",
          "name": "to",
          "type": "address"
        },
        {
          "internalType": "uint256",
          "name": "amount",
          "type": "uint256"
        }
      ],
      "name": "transfer",
      "outputs": [
        {
          "internalType": "bool",
          "name": "",
          "type": "bool"
        }
      ],
      "stateMutability": "nonpayable",
      "type": "function"
    },
    {
      "inputs": [
        {
          "internalType": "address",
          "name": "from",
          "type": "address"
        },
        {
          "internalType": "address",
          "name": "to",
          "type": "address"
        },
        {
          "internalType": "uint256",
          "name": "amount",
          "type": "uint256"
        }
      ],
      "name": "transferFrom",
      "outputs": [
        {
          "internalType": "bool",
          "name": "",
          "type": "bool"
        }
      ],
      "stateMutability": "nonpayable",
      "type": "function"
    }
  ],
  "bytecode": "0x60806040523480156200001157600080fd5b506040518060400160405280600481526020017f4b696e67000000000000000000000000000000000000000000000000000000008152506040518060400160405280600381526020017f4b4e5400000000000000000000000000000000000000000000000000000000008152508160039080519060200190620000969291906200029d565b508060049080519060200190620000af9291906200029d565b505050620000d733620000cb620f4240620000dd60201b60201c565b6200011160201b60201c565b6200070c565b6000620000ef6200028a60201b60201c565b600a620000fd91906200048d565b826200010a9190620005ca565b9050919050565b600073ffffffffffffffffffffffffffffffffffffffff168273ffffffffffffffffffffffffffffffffffffffff16141562000184576040517f08c379a00000000000000000000000000000000000000000000000000000000081526004016200017b9062000385565b60405180910390fd5b62000198600083836200029360201b60201c565b8060026000828254620001ac9190620003d5565b92505081905550806000808473ffffffffffffffffffffffffffffffffffffffff1673ffffffffffffffffffffffffffffffffffffffff1681526020019081526020016000206000828254620002039190620003d5565b925050819055508173ffffffffffffffffffffffffffffffffffffffff16600073ffffffffffffffffffffffffffffffffffffffff167fddf252ad1be2c89b69c2b068fc378daa952ba7f163c4a11628f55a4df523b3ef836040516200026a9190620003a7565b60405180910390a362000286600083836200029860201b60201c565b5050565b60006012905090565b505050565b505050565b828054620002ab9062000642565b90600052602060002090601f016020900481019282620002cf57600085556200031b565b82601f10620002ea57805160ff19168380011785556200031b565b828001600101855582156200031b579182015b828111156200031a578251825591602001919060010190620002fd565b5b5090506200032a91906200032e565b5090565b5b80821115620003495760008160009055506001016200032f565b5090565b60006200035c601f83620003c4565b91506200036982620006e3565b602082019050919050565b6200037f816200062b565b82525050565b60006020820190508181036000830152620003a0816200034d565b9050919050565b6000602082019050620003be600083018462000374565b92915050565b600082825260208201905092915050565b6000620003e2826200062b565b9150620003ef836200062b565b9250827fffffffffffffffffffffffffffffffffffffffffffffffffffffffffffffffff0382111562000427576200042662000678565b5b828201905092915050565b6000808291508390505b600185111562000484578086048111156200045c576200045b62000678565b5b60018516156200046c5780820291505b80810290506200047c85620006d6565b94506200043c565b94509492505050565b60006200049a826200062b565b9150620004a78362000635565b9250620004d67fffffffffffffffffffffffffffffffffffffffffffffffffffffffffffffffff8484620004de565b905092915050565b600082620004f05760019050620005c3565b81620005005760009050620005c3565b816001811462000519576002811462000524576200055a565b6001915050620005c3565b60ff84111562000539576200053862000678565b5b8360020a91508482111562000553576200055262000678565b5b50620005c3565b5060208310610133831016604e8410600b8410161715620005945782820a9050838111156200058e576200058d62000678565b5b620005c3565b620005a3848484600162000432565b92509050818404811115620005bd57620005bc62000678565b5b81810290505b9392505050565b6000620005d7826200062b565b9150620005e4836200062b565b9250817fffffffffffffffffffffffffffffffffffffffffffffffffffffffffffffffff048311821515161562000620576200061f62000678565b5b828202905092915050565b6000819050919050565b600060ff82169050919050565b600060028204905060018216806200065b57607f821691505b60208210811415620006725762000671620006a7565b5b50919050565b7f4e487b7100000000000000000000000000000000000000000000000000000000600052601160045260246000fd5b7f4e487b7100000000000000000000000000000000000000000000000000000000600052602260045260246000fd5b60008160011c9050919050565b7f45524332303a206d696e7420746f20746865207a65726f206164647265737300600082015250565b611628806200071c6000396000f3fe6080604052600436106100a75760003560e01c806370a082311161006457806370a08231146101e45780637e72fb521461022157806395d89b411461023d578063a457c2d714610268578063a9059cbb146102a5578063dd62ed3e146102e2576100a7565b806306fdde03146100ac578063095ea7b3146100d757806318160ddd1461011457806323b872dd1461013f578063313ce5671461017c57806339509351146101a7575b600080fd5b3480156100b857600080fd5b506100c161031f565b6040516100ce919061104b565b60405180910390f35b3480156100e357600080fd5b506100fe60048036038101906100f99190610e76565b6103b1565b60405161010b9190611030565b60405180910390f35b34801561012057600080fd5b506101296103d4565b604051610136919061116d565b60405180910390f35b34801561014b57600080fd5b5061016660048036038101906101619190610e27565b6103de565b6040516101739190611030565b60405180910390f35b34801561018857600080fd5b5061019161040d565b60405161019e9190611188565b60405180910390f35b3480156101b357600080fd5b506101ce60048036038101906101c99190610e76565b610416565b6040516101db9190611030565b60405180910390f35b3480156101f057600080fd5b5061020b60048036038101906102069190610dc2565b6104c0565b604051610218919061116d565b60405180910390f35b61023b60048036038101906102369190610dc2565b610508565b005b34801561024957600080fd5b50610252610528565b60405161025f919061104b565b60405180910390f35b34801561027457600080fd5b5061028f600480360381019061028a9190610e76565b6105ba565b60405161029c9190611030565b60405180910390f35b3480156102b157600080fd5b506102cc60048036038101906102c79190610e76565b6106a4565b6040516102d99190611030565b60405180910390f35b3480156102ee57600080fd5b5061030960048036038101906103049190610deb565b6106c7565b604051610316919061116d565b60405180910390f35b60606003805461032e906112f7565b80601f016020809104026020016040519081016040528092919081815260200182805461035a906112f7565b80156103a75780601f1061037c576101008083540402835291602001916103a7565b820191906000526020600020905b81548152906001019060200180831161038a57829003601f168201915b5050505050905090565b6000806103bc61074e565b90506103c9818585610756565b600191505092915050565b6000600254905090565b6000806103e961074e565b90506103f6858285610921565b6104018585856109ad565b60019150509392505050565b60006012905090565b60008061042161074e565b90506104b5818585600160008673ffffffffffffffffffffffffffffffffffffffff1673ffffffffffffffffffffffffffffffffffffffff16815260200190815260200160002060008973ffffffffffffffffffffffffffffffffffffffff1673ffffffffffffffffffffffffffffffffffffffff168152602001908152602001600020546104b091906111bf565b610756565b600191505092915050565b60008060008373ffffffffffffffffffffffffffffffffffffffff1673ffffffffffffffffffffffffffffffffffffffff168152602001908152602001600020549050919050565b60006103e8346105189190611215565b90506105248282610c2e565b5050565b606060048054610537906112f7565b80601f0160208091040260200160405190810160405280929190818152602001828054610563906112f7565b80156105b05780601f10610585576101008083540402835291602001916105b0565b820191906000526020600020905b81548152906001019060200180831161059357829003601f168201915b5050505050905090565b6000806105c561074e565b90506000600160008373ffffffffffffffffffffffffffffffffffffffff1673ffffffffffffffffffffffffffffffffffffffff16815260200190815260200160002060008673ffffffffffffffffffffffffffffffffffffffff1673ffffffffffffffffffffffffffffffffffffffff1681526020019081526020016000205490508381101561068b576040517f08c379a00000000000000000000000000000000000000000000000000000000081526004016106829061112d565b60405180910390fd5b6106988286868403610756565b60019250505092915050565b6000806106af61074e565b90506106bc8185856109ad565b600191505092915050565b6000600160008473ffffffffffffffffffffffffffffffffffffffff1673ffffffffffffffffffffffffffffffffffffffff16815260200190815260200160002060008373ffffffffffffffffffffffffffffffffffffffff1673ffffffffffffffffffffffffffffffffffffffff16815260200190815260200160002054905092915050565b600033905090565b600073ffffffffffffffffffffffffffffffffffffffff168373ffffffffffffffffffffffffffffffffffffffff1614156107c6576040517f08c379a00000000000000000000000000000000000000000000000000000000081526004016107bd9061110d565b60405180910390fd5b600073ffffffffffffffffffffffffffffffffffffffff168273ffffffffffffffffffffffffffffffffffffffff161415610836576040517f08c379a000000000000000000000000000000000000000000000000000000000815260040161082d9061108d565b60405180910390fd5b80600160008573ffffffffffffffffffffffffffffffffffffffff1673ffffffffffffffffffffffffffffffffffffffff16815260200190815260200160002060008473ffffffffffffffffffffffffffffffffffffffff1673ffffffffffffffffffffffffffffffffffffffff168152602001908152602001600020819055508173ffffffffffffffffffffffffffffffffffffffff168373ffffffffffffffffffffffffffffffffffffffff167f8c5be1e5ebec7d5bd14f71427d1e84f3dd0314c0f7b2291e5b200ac8c7c3b92583604051610914919061116d565b60405180910390a3505050565b600061092d84846106c7565b90507fffffffffffffffffffffffffffffffffffffffffffffffffffffffffffffffff81146109a75781811015610999576040517f08c379a0000000000000000000000000000000000000000000000000000000008152600401610990906110ad565b60405180910390fd5b6109a68484848403610756565b5b50505050565b600073ffffffffffffffffffffffffffffffffffffffff168373ffffffffffffffffffffffffffffffffffffffff161415610a1d576040517f08c379a0000000000000000000000000000000000000000000000000000000008152600401610a14906110ed565b60405180910390fd5b600073ffffffffffffffffffffffffffffffffffffffff168273ffffffffffffffffffffffffffffffffffffffff161415610a8d576040517f08c379a0000000000000000000000000000000000000000000000000000000008152600401610a849061106d565b60405180910390fd5b610a98838383610d8e565b60008060008573ffffffffffffffffffffffffffffffffffffffff1673ffffffffffffffffffffffffffffffffffffffff16815260200190815260200160002054905081811015610b1e576040517f08c379a0000000000000000000000000000000000000000000000000000000008152600401610b15906110cd565b60405180910390fd5b8181036000808673ffffffffffffffffffffffffffffffffffffffff1673ffffffffffffffffffffffffffffffffffffffff16815260200190815260200160002081905550816000808573ffffffffffffffffffffffffffffffffffffffff1673ffffffffffffffffffffffffffffffffffffffff1681526020019081526020016000206000828254610bb191906111bf565b925050819055508273ffffffffffffffffffffffffffffffffffffffff168473ffffffffffffffffffffffffffffffffffffffff167fddf252ad1be2c89b69c2b068fc378daa952ba7f163c4a11628f55a4df523b3ef84604051610c15919061116d565b60405180910390a3610c28848484610d93565b50505050565b600073ffffffffffffffffffffffffffffffffffffffff168273ffffffffffffffffffffffffffffffffffffffff161415610c9e576040517f08c379a0000000000000000000000000000000000000000000000000000000008152600401610c959061114d565b60405180910390fd5b610caa60008383610d8e565b8060026000828254610cbc91906111bf565b92505081905550806000808473ffffffffffffffffffffffffffffffffffffffff1673ffffffffffffffffffffffffffffffffffffffff1681526020019081526020016000206000828254610d1191906111bf565b925050819055508173ffffffffffffffffffffffffffffffffffffffff16600073ffffffffffffffffffffffffffffffffffffffff167fddf252ad1be2c89b69c2b068fc378daa952ba7f163c4a11628f55a4df523b3ef83604051610d76919061116d565b60405180910390a3610d8a60008383610d93565b5050565b505050565b505050565b600081359050610da7816115c4565b92915050565b600081359050610dbc816115db565b92915050565b600060208284031215610dd457600080fd5b6000610de284828501610d98565b91505092915050565b60008060408385031215610dfe57600080fd5b6000610e0c85828601610d98565b9250506020610e1d85828601610d98565b9150509250929050565b600080600060608486031215610e3c57600080fd5b6000610e4a86828701610d98565b9350506020610e5b86828701610d98565b9250506040610e6c86828701610dad565b9150509250925092565b60008060408385031215610e8957600080fd5b6000610e9785828601610d98565b9250506020610ea885828601610dad565b9150509250929050565b610ebb81611281565b82525050565b6000610ecc826111a3565b610ed681856111ae565b9350610ee68185602086016112c4565b610eef81611387565b840191505092915050565b6000610f076023836111ae565b9150610f1282611398565b604082019050919050565b6000610f2a6022836111ae565b9150610f35826113e7565b604082019050919050565b6000610f4d601d836111ae565b9150610f5882611436565b602082019050919050565b6000610f706026836111ae565b9150610f7b8261145f565b604082019050919050565b6000610f936025836111ae565b9150610f9e826114ae565b604082019050919050565b6000610fb66024836111ae565b9150610fc1826114fd565b604082019050919050565b6000610fd96025836111ae565b9150610fe48261154c565b604082019050919050565b6000610ffc601f836111ae565b91506110078261159b565b602082019050919050565b61101b816112ad565b82525050565b61102a816112b7565b82525050565b60006020820190506110456000830184610eb2565b92915050565b600060208201905081810360008301526110658184610ec1565b905092915050565b6000602082019050818103600083015261108681610efa565b9050919050565b600060208201905081810360008301526110a681610f1d565b9050919050565b600060208201905081810360008301526110c681610f40565b9050919050565b600060208201905081810360008301526110e681610f63565b9050919050565b6000602082019050818103600083015261110681610f86565b9050919050565b6000602082019050818103600083015261112681610fa9565b9050919050565b6000602082019050818103600083015261114681610fcc565b9050919050565b6000602082019050818103600083015261116681610fef565b9050919050565b60006020820190506111826000830184611012565b92915050565b600060208201905061119d6000830184611021565b92915050565b600081519050919050565b600082825260208201905092915050565b60006111ca826112ad565b91506111d5836112ad565b9250827fffffffffffffffffffffffffffffffffffffffffffffffffffffffffffffffff0382111561120a57611209611329565b5b828201905092915050565b6000611220826112ad565b915061122b836112ad565b9250817fffffffffffffffffffffffffffffffffffffffffffffffffffffffffffffffff048311821515161561126457611263611329565b5b828202905092915050565b600061127a8261128d565b9050919050565b60008115159050919050565b600073ffffffffffffffffffffffffffffffffffffffff82169050919050565b6000819050919050565b600060ff82169050919050565b60005b838110156112e25780820151818401526020810190506112c7565b838111156112f1576000848401525b50505050565b6000600282049050600182168061130f57607f821691505b6020821081141561132357611322611358565b5b50919050565b7f4e487b7100000000000000000000000000000000000000000000000000000000600052601160045260246000fd5b7f4e487b7100000000000000000000000000000000000000000000000000000000600052602260045260246000fd5b6000601f19601f8301169050919050565b7f45524332303a207472616e7366657220746f20746865207a65726f206164647260008201527f6573730000000000000000000000000000000000000000000000000000000000602082015250565b7f45524332303a20617070726f766520746f20746865207a65726f20616464726560008201527f7373000000000000000000000000000000000000000000000000000000000000602082015250565b7f45524332303a20696e73756666696369656e7420616c6c6f77616e6365000000600082015250565b7f45524332303a207472616e7366657220616d6f756e742065786365656473206260008201527f616c616e63650000000000000000000000000000000000000000000000000000602082015250565b7f45524332303a207472616e736665722066726f6d20746865207a65726f20616460008201527f6472657373000000000000000000000000000000000000000000000000000000602082015250565b7f45524332303a20617070726f76652066726f6d20746865207a65726f2061646460008201527f7265737300000000000000000000000000000000000000000000000000000000602082015250565b7f45524332303a2064656372656173656420616c6c6f77616e63652062656c6f7760008201527f207a65726f000000000000000000000000000000000000000000000000000000602082015250565b7f45524332303a206d696e7420746f20746865207a65726f206164647265737300600082015250565b6115cd8161126f565b81146115d857600080fd5b50565b6115e4816112ad565b81146115ef57600080fd5b5056fea26469706673582212206ab14b90e045333ec66ccc235c637d85b3efc09cf2376fca915ef1d3eeae46aa64736f6c63430008040033",
  "linkReferences": {},
  "deployedLinkReferences": {}
}